:020000021000EC
:10B0000000800020F95D0200395E02003B5E020014
:10B010000000000000000000000000000000000030
:10B020000000000000000000000000003D5E020083
:10B0300000000000000000003F5E0200415E0200D0
:10B0400079DD0100435E020075E60100435E020007
:10B05000435E02000000000099E10100435E02002F
:10B06000435E0200435E0200435E0200435E020054
:10B07000435E0200435E0200435E0200435E020044
:10B08000435E0200E5B50100435E0200435E02003C
:10B09000C1B60100435E0200B1790200435E0200C6
:10B0A000435E0200435E020000000000000000005A
:10B0B0000000000000000000000000000000000090
:10B0C00010B5064C2378002B07D1054B002B02D07E
:10B0D000044800E000BF0123237010BDF4200020CD
:10B0E0000000000088810200084B10B5002B03D03F
:10B0F0000749084800E000BF07480368002B00D15B
:10B1000010BD064B002BFBD09847F9E7000000006C
:10B11000F820002088810200E020002000000000CC
:10B12000164B002B00D1144B9D46402292029A1AD6
:10B13000924600218B460F461348144A121A00F01B
:10B1400067F80F4B002B00D098470E4B002B00D018
:10B1500098470020002104000D000D48002802D06F
:10B160000C4800E000BF00F02DF82000290004F09A
:10B17000CDFA00F011F8C046000008000080002061
:10B180000000000000000000F4200020FC2E002041
:10B190000000000000000000084B10B50400002B68
:10B1A00002D0002100E000BF054B1868836A002B25
:10B1B00000D09847200000F033F8C046000000009F
:10B1C000987D02000E4B70B500251E000D4CE41A50
:10B1D000A410A54204D0AB00F35898470135F8E716
:10B1E0000CF0CEFD084B00251E00084CE41AA410FC
:10B1F000A54204D0AB00F35898470135F8E770BD7D
:10B20000D8200020D8200020D8200020DC200020DA
:10B2100003008218934202D019700133FAE7704795
:10B22000FEE7C046F0B54E4657464546E0B4214BD2
:10B230001978994600292AD01F4B002598461F4BA4
:10B240001F4F01269A4603E00135EDB28D421ED212
:10B2500043461B6832009C46EC00644420783B68FF
:10B2600082401342F0D093433B6002F08BFF3300E7
:10B2700022785146934009680B40010091408B426F
:10B280000AD04B4601351978EDB28D42E0D31CBC93
:10B2900090469946A246F0BD6368002BF1D06178D4
:10B2A00001394C424C41211A4C424C411000E1B250
:10B2B0009847E6E718210020142100203C210020B7
:10B2C00040210020F8B5124D0700280000F08AFD4B
:10B2D000002807D10124BC400E4E3368234202D01F
:10B2E000A3433360F8BD380002F04CFF0A4A1368EC
:10B2F00000280BD023431360336800221C43074B04
:10B3000028001968346000F00DFDEBE7A343F2E775
:10B310001C210020402100203C2100201021002081
:10B32000F0B54F464646C0B41400070083B00E0087
:10B330000720042A04D803B00CBC90469946F0BDFF
:10B3400002F014FE00282FD01A4B1B4A1F601B4B23
:10B35000751E1E701A4BEDB21C6000231360194A53
:10B360001360002E1AD0184B01AC99460323002617
:10B37000984600E01D004246EB00FB182270A670C4
:10B38000E6709A781878627021004A4602F0F8FD5B
:10B390000028D0D16B1EDBB2002DEBD10B4A00216F
:10B3A0000B4800F0A5FCC6E702F0A6FD0028CBD0B4
:10B3B000C1E7C046142100203C21002018210020B4
:10B3C0001021002040210020C5B2010025B201005B
:10B3D0009C7D020070B5094D2B78002B0BD000240A
:10B3E000074E3268E300985C012102F077FE2B786B
:10B3F0000134A342F5D8002070BDC04618210020BA
:10B4000014210020002300B585B001AA906000211E
:10B4100003481380536000F005F805B000BDC04636
:10B4200001400000BFF34F8F034A044BDA60BFF3C3
:10B430004F8FC046FDE7C0460400FA0500ED00E06E
:10B44000032330B5134005000720002B00D030BD8A
:10B4500008484C1CE4000260A4B2074812190260BC
:10B46000064A00201370064A1370064B1D80064BD7
:10B470001980ECE744210020482100204F210020C2
:10B480004E2100204C21002050210020F0B55746CD
:10B490004E464546E0B42E4D06002B8882B00C0087
:10B4A000170009208B4205D202B01CBC9046994679
:10B4B000A246F0BD6A460023D01DD37100F0EEFC19
:10B4C000244B254A19782548CBB200219846137899
:10B4D0000088DBB28C46834202D20133DBB29C4649
:10B4E000E0451ED013780021DBB298461378DBB21A
:10B4F000834201D20133D9B26B46D879117000F082
:10B50000EDFC4346DB009946154B9A461B684B44BD
:10B510001F60002E01D0002C09D1002200209A804B
:10B52000C2E76B46D87900F0D9FC0420BCE743465B
:10B5300028882200434318000A4B31001B68181862
:10B540000CF00DFC53461B6800204B449C80ABE77D
:10B550004C2100204E2100204F21002050210020AE
:10B560004421002048210020F8B54F464646C0B48B
:10B57000164C174D22782B789A4222D0154B164F35
:10B580009946164B164E98464A46126820789446BD
:10B590003A88C0B2C300504342461268634494469E
:10B5A000998860441B68984723783188DBB2002271
:10B5B000994201D90133DAB2227022782B789A426B
:10B5C000E2D10CBC90469946F8BDC0464E21002001
:10B5D0004F210020442100204C2100204821002040
:10B5E00050210020A021F0B5002347462B4A4900F6
:10B5F00080B45350043153500431535004315350EC
:10B600004C39535004315350254B1B68002B35D017
:10B610002449002652582449244F0C68141B002248
:10B620002402240A904602E0002D18D02B001A684C
:10B63000A24214D8A41AB6181A7CDD69002AF3D0E5
:10B64000424699691A745A693B68002B19D0100058
:10B6500098470028E8D0FFF7D5FE002DE6D1144B1F
:10B6600014491A780B789A420ED0134A9B009E50C8
:10B6700080218023114A49035B00D15004BC9046CD
:10B68000F0BD08009047CFE70132D3B2022B01D0C2
:10B690000B70EAE700230B70E7E7C046001001409B
:10B6A0005821002004050000542100205C210020C6
:10B6B00060210020612100206C21002000E100E0D9
:10B6C000F0B556465F464D464446F0B4AE4BAF4AE1
:10B6D0001B68AF499A46097813788BB0994200D11C
:10B6E000F1E00133DBB2022B00D1F0E01370A94A84
:10B6F0009B009E5853469B191B02A34A1B0A1360CA
:10B70000012398460020A44B84461B780024019313
:10B710001900A24B1B6899469F4B4D465B781A0057
:10B7200005939D4B5B6802939B4B9B78089003931A
:10B73000954B07901B689A4804939A4B83461B7855
:10B740006046069309964B4616000090B1421DD004
:10B7500002984A008446521803980131D200C9B2B7
:10B760006244814200D1A4E01078022800D184E034
:10B770000328EBD1002BE9D01C74DB69002BFBD133
:10B780000133009300250023B142E1D1009A099EC4
:10B79000002A00D0F6E1079A002A02D07A4A0499DA
:10B7A0001160089A002A03D069467E4A097E11700A
:10B7B0004246002A00D05EE14A46D21A511E8A4112
:10B7C00000251E00D2B2089206936F4B00271B681B
:10B7D0009C46724B1B689B46724B1B780793019BE0
:10B7E000984600230193049301339A466E4B0093CD
:10B7F000002D27D06968A8682C00ED696346CA1A35
:10B80000009B1202120A9A4273D813185246236000
:10B810006760A7602274E761002E79D0316830003C
:10B82000994204D38BE01168994277D21000C26923
:10B830005B1A002AF7D1E26132002360C46116006E
:10B84000002DD7D1059B984500D1AFE0029A434621
:10B85000914642460132D2B25B0043449046039A7D
:10B86000DB004B44424500D18BE01A78012A6FD0AF
:10B870003200012316000493E2E75768002B28D01A
:10B8800018009F4201D116E01000C269002A00D1C1
:10B890005CE79742F8D190420ED01768D269BC4657
:10B8A000C261002A00D151E71368634413602B0082
:10B8B0004CE7002158E71A00DD69002D0BD0012765
:10B8C0002B000097E9E70023002698461AE700239B
:10B8D0000CE700233AE701275B4601359D60089796
:10B8E0000697079700270497013700250023009744
:10B8F000D3E76346591A0902090A814215D2524612
:10B90000431A23606760A7602274E761002E85D127
:10B9100022000123A3460193160091E7C91A116082
:10B92000E26123603200C46189E7534627606760A3
:10B93000A7602374E761002EEAD000233168CB1A98
:10B94000336022000123E661A3460193160077E7E6
:10B950005C68227C110032000491002900D06EE75F
:10B9600099686160D868A0601A69E2605B69A36148
:10B97000079B002B00D177E0049A002162600493BA
:10B980003CE70022904670E754210020602100200F
:10B99000612100206C21002064210020582100201A
:10B9A0000010014062210020FEFF7F00049B002B5D
:10B9B00000D0EAE0019B002B02D05A46764B1A6079
:10B9C000069BB34253D0002E00D1A4E07349744BC0
:10B9D000744C58586146411A09022578090A3268A0
:10B9E0000331002D21D18025D1266D02B6009D5155
:10B9F000403E9D51C02780266B4DB6027F00EE5120
:10BA00002E6001251D60694B694F1E682F23C046BB
:10BA1000C046C046C046C046C046C046C046BE42FC
:10BA200000D0C046013BF2D125708A4200D20A0004
:10BA3000A824624412025A49130AE400574D0B51DC
:10BA40004A591B1A121A1202120A1B0203321B0A4B
:10BA50009A4246D80023574A13700BB03CBC90461C
:10BA60009946A246AB46F0BD01230493C6E6089B67
:10BA7000002BEFD0A7E70025474AAC461068002707
:10BA800000210024454615E01A68B2421ED8D86845
:10BA9000B61A89181C60DF69002808D0524652186F
:10BAA0001202120A5A6062469C469860DA613B00B4
:10BAB00038002F00002BE7D16546002F00D05EE054
:10BAC0000023069301330893069E7EE66546002F09
:10BAD00000D05EE0961B1E6006930123069E08932D
:10BAE00073E64B590B51314B31491A682F23C0462D
:10BAF000C046C046C046C046C046C046C0468A4250
:10BB000000D0C046013BF2D180218023264A890221
:10BB10005B00D1509EE780218023234A8902D150C7
:10BB20008023D22101241E4A5B02890053504039F0
:10BB300053501E4B546019682F231D481D00C046EA
:10BB4000C046C046C046C046C046C046C046814208
:10BB500000D0C046013DF2D19460174A1660C0463D
:10BB6000C046C046C046C046C046C046C0468142E8
:10BB700000D0C046013BF2D10A4B1E706AE7064B6B
:10BB800018609DE7044A156005E642460B4B1A70A3
:10BB900010E7014908609DE75821002004050000D6
:10BBA000001001407421002000E100E0D4200020BA
:10BBB0000024F40062210020542100206421002090
:10BBC000F0B55F46444656464D46F0B4032483B074
:10BBD0000700019314400720002C06D003B03CBCA2
:10BBE00090469946A246AB46F0BD002AF6D0802684
:10BBF000324DB60279302E50802040028046D2204D
:10BC000043462F4E8000335040383350012070603F
:10BC100081462C48006884462B4880462F20834666
:10BC2000C046C046C046C046C046C046C046C046E4
:10BC3000C44500D0C0460138F2D14846B0605846ED
:10BC4000C046C046C046C046C046C046C046C046C4
:10BC5000C44500D0C0460138F2D11C48019B047095
:10BC60001B4803601B4BC5201C7099705C705A60A8
:10BC7000194B80211C60194BFF221C70184B490383
:10BC80001C70C0235B00E95080002B5893433F3A5F
:10BC900013432B50A123C422DB0029609200F750EC
:10BCA000A958104B00200B40C02109020B43AB5098
:10BCB0000D4BF2580D4B1A6090E7C04600E100E0D2
:10BCC00000100140D42000200024F4007421002042
:10BCD0005C210020642100205821002060210020E8
:10BCE00061210020FF00FFFF040500005421002017
:10BCF00010B50B4B5B68002B0BD0002A07D0002837
:10BD000005D0036808201C7C002C04D010BD07203F
:10BD1000FCE70820FAE759745A610020F6E7C046AC
:10BD200064210020F0B54F4680B42A4C82B063688D
:10BD300005000E001700002B08D0002806D00720B1
:10BD4000042905D802B004BC9146F0BD0820F9E7EB
:10BD50006B69002BFAD000226B7C9146012B2ED010
:10BD60006A460023D01DD37100F098F86378A1785B
:10BD70005A1CD2B2914224D02178914223D059004A
:10BD8000CB186168DB008C466344002B1BD001217B
:10BD90001148197011495D604158DE60996049464B
:10BDA0005F6119616B46D879627000F097F8802165
:10BDB00080230B4A49035B00D1500020C2E789462B
:10BDC000CEE70022D8E76B46D87900F087F8042048
:10BDD000B8E7C046642100200010014004050000BF
:10BDE00000E100E070B51E4C0500636882B00820D9
:10BDF000002B2BD0002D29D06B69002B26D06A4652
:10BE00000023D61D2B743000337000F047F86378A0
:10BE1000A1785A1CD2B291421AD02178914219D0FD
:10BE20005900CB186168DB008C466344002B11D0AD
:10BE3000022119705D603078627000F04FF8802147
:10BE400080230020074A49035B00D15002B070BD37
:10BE50000022E2E7307800F041F80420F6E7C0461F
:10BE60006421002000E100E010B50400082902D0A0
:10BE70000020FFF7C7FA60682368984710BDC046E6
:10BE800000B583B000900191034A08216846FFF78E
:10BE9000FDFA03B000BDC04669BE0100F0B5EFF386
:10BEA000108172B60A4B5A68002A0DD101248025F0
:10BEB000084E5C607459084F3C401C60775102701A
:10BEC000002900D162B6F0BD01230370F8E7C04637
:10BED000F42E002000E100E0FC06FFBC10B5084B8A
:10BEE0005A68002A0BD0002809D1EFF3108272B6ED
:10BEF00004491C680C605860002A00D162B610BD6D
:10BF0000F42E002000E100E0F0B52B4C83B0636814
:10BF10006188002B49D05A88284F03320E019200C5
:10BF20009A18BB1959688023DB00C818824224D2B2
:10BF30001368013321D0224D9388AB4214D013886B
:10BF4000002B11D003201F4B626099881B68890069
:10BF50005918538820700020033300909BB21A4870
:10BF600001F030FA03B0F0BD538803339B00D218C0
:10BF7000824202D213680133DED1BE19B389002B8D
:10BF80000BD00523022223700E4B0F489A801968AC
:10BF9000013A002301F072FAE4E7002301220A4883
:10BFA00001F06CFA04232370DCE7044F0E01BB1987
:10BFB00059680A000832B6E7F0210020D02100209D
:10BFC000FFFF000078220020E4200020F0B5474663
:10BFD00080B443688C46002B03D0314A11688B42F1
:10BFE00035D20023624601272E492F4D138080232E
:10BFF0004E68DB00F41800230DE01A68013212D0FD
:10C000009A88AA4209D01A88002A06D09A689046CF
:10C010000268904513D0002B0ED05A88033292004C
:10C020009B189C42E9D863461F800137BFB210318C
:10C03000032FDCD1002007E033000833F1E7436031
:10C040001A4B1B890381012004BC9046F0BD526845
:10C050009342C6D89A07C4D1144A018912899142E1
:10C06000BFD1026899688A42BBD10E494A6893429F
:10C0700007D98020C00080464244934201D2002369
:10C080000AE04A6900209342DED98021C90088462F
:10C0900042449342D8D20123624601201380D3E761
:10C0A000E4200020D0210020FFFF0000F02100202C
:10C0B000F0B54D465F4656464446F0B48C469988E6
:10C0C000914601294BD8294A294F92460022904691
:10C0D00054460A01A45C002C3CD11C685244002C3C
:10C0E0003FD0658856680335AD0064198025ED00A2
:10C0F000AB465E44A6422BD92568013528D0A588D9
:10C10000BD421FD02588002D1CD01C60002803D004
:10C11000A6880588AE42E2D16546002D03D0268868
:10C120002D88AE42DBD14A460020A16811601B6811
:10C130005360104B1B8913813CBC90469946A24624
:10C14000AB46F0BD65880335AD006419B442D3D366
:10C1500042461A60013189B299800229B8D10A2079
:10C16000EAE7566834000834C0E7C046D021002012
:10C17000FFFF0000F0210020F0B544465F46564620
:10C180004D46F0B4C84C8BB0256F8046EF007B1B4A
:10C190009B00E218E35C9246062B27D8C3499A001D
:10C1A0008A589746002800D0EDE0C14E337B002B23
:10C1B00000D1A7E233783073072B00D9A0E2BD4A43
:10C1C0009B00D3589F46002800D0DDE0781B8000FC
:10C1D0008346A3445A4612790392012A00D1C8E249
:10C1E000002A00D1A9E2022A00D12DE10F229146B6
:10C1F00005AEB14A914500D1CDE04A467260524643
:10C200001278023A012A00D8E3E0062B59D8AB4A4B
:10C210009B00D3589F46AA497A1B89469200A218D0
:10C22000568A36014E44002800D0C1E0706831893A
:10C230008046127C89008844062A00D958E3A14927
:10C2400092008A589746002800D0A7E053461E79EE
:10C25000012E00D1A8E2002E00D199E2022E00D1D9
:10C26000F6E0032E00D091E2974E00900223974A09
:10C270003168974801F0A6F83368914A9C468C4B88
:10C2800091465B881B01D21851683160614651604C
:10C29000B188118102224946B28042465A5453461F
:10C2A0001A71002832D07B1B9B00E35C0120894976
:10C2B00005AE0A7882430A700E22914699E705235B
:10C2C0003370854D2F0020372B68002B01D03000B4
:10C2D00098470435BD42F7D1236F1C22D800C01AFD
:10C2E000800020180021FEF793FF636F002B08D019
:10C2F0000321226F013B01320A4022676367002B52
:10C3000063D10421734A13788B4313700BB03CBC88
:10C3100090469946A246AB46F0BD00233370D0E765
:10C3200004237D1BAD0065193370EB88B3810023B6
:10C33000F381C6E703237D1BAD0065193370EB88DD
:10C34000B3812B89F381EB68B360BAE702237D1BCD
:10C35000AD00651933702B89B381AB88F381EB682D
:10C36000B3602B7C063B594259413174A9E7012344
:10C370007D1BAD00651933702B89B381AB88F381C8
:10C38000EB68B3609DE70623012291464A4A05AE59
:10C39000914500D031E70022726036E701214D4A15
:10C3A00005AE13788B43137001220123914620E7D9
:10C3B000D0883289C11C511872893181121A033A0E
:10C3C0007281012205AE914613E70020FFF7D4FEEB
:10C3D0009CE75246917D414A106C40181064506CA5
:10C3E000411A516411E73389354A013333810023FF
:10C3F000117833734B424B41B372127C5342534119
:10C40000F37201233370B37A002B09D00023B37287
:10C410002B4B9A89002A03D19B7B002B00D06AE228
:10C42000F37A002B09D00023F372254B9A8B002A54
:10C4300003D19B7F002B00D063E200233370738015
:10C4400073607B1B9B00E35C1B4A05AE9146D0E604
:10C450001D4B012299464946002309681C4801F0FA
:10C460000DF84B4642469E8053461A7119E7738871
:10C47000134A1B01D3189A89002A00D1D2E105235F
:10C4800002223370104B12489A801968013A002337
:10C4900000F0F4FF81464B46002B00D136E71C2309
:10C4A0006B4305AEE35CA8E600220020A07D0200FD
:10C4B000F0210020BC7D02001D1D0000DC7D02007B
:10C4C000D0210020F87D020078220020707E02003A
:10C4D000E4200020842200209022002078210020E7
:10C4E000D748726881888B0001680320C918538877
:10C4F00030700020033300909BB2D24800F062FFFE
:10C500008146C8E77B1B9B009946A346CB445B460C
:10C510001A1D002341460093CA48013300F052FF20
:10C5200002235A461374002800D1EFE60E224B4630
:10C5300091461B5D7A1B9200A218D0883289C11CDB
:10C54000511872893181121A033A728105AE50E690
:10C550007B1B9B009946A346CB4400235A46414689
:10C56000083204310093B748013300F02BFF4B46EB
:10C57000E35CDA1E514251410622521A59460A74AE
:10C58000002800D1C2E60E229146D3E7AE4A91467A
:10C59000D0E7AE4BAE4A1B88AA489846AD4B5968C7
:10C5A00000230093013300F00DFF002800D032E19A
:10C5B000434601221B014B449A7306237D1BAD00A9
:10C5C00064192374A2E60023A248A04943607B1BA0
:10C5D0009B009946E3189B690360FFF7F7FC00286E
:10C5E00090D14B460A221B5D914605AE01E69A4A60
:10C5F000536C002B00D1ECE0116C07208B46013B03
:10C6000053645B46013101401164D90053188A58C4
:10C61000791B89008946A14449460020898A9B46A6
:10C6200089009B8841440090864800F0CBFE4B4631
:10C630009A8A5B469B88D3184A469382937D013B36
:10C64000DBB29375002B01D101331374002800D1A4
:10C650005CE60E227B1B9B00E35C91466AE77B1B3A
:10C660009B009946E218414600230C3200930831A2
:10C670000133744800F0A6FE4B46E3189B7D01226F
:10C68000002B00D002327B1B9B00E1180A740028AB
:10C6900000D13BE6E35C76E7072333700023684A6A
:10C6A00073601168674800936C4A023300F08AFE99
:10C6B0008146F0E6624A736859889388CB18033341
:10C6C000938002233370FFF71FFC81464B46002BFB
:10C6D00000D11BE605AE1C236B43E35C89E5604A91
:10C6E000738891461B014B4459680622002332701F
:10C6F000544800935B4A023300F064FE8146CAE668
:10C70000062373E53378072BFAD857499A008A58DD
:10C7100097460123337076E6494A514913688946A2
:10C720009C4673881B01C9184868106060464860C1
:10C730009088088102219180D5E705AE0C22002166
:10C740003000FEF765FD5B46DB6802AA0593944660
:10C750000A23634419003000FFF738FC0A23994686
:10C76000002800D086E002227B1B9B00E3181A7190
:10C7700091E63E4B1B789B072DD4082200213C48B4
:10C78000FEF746FD022305AE9946A4E701238DE599
:10C790002B4B324A1968009002232A4800F012FEFF
:10C7A0000123524613717CE52D4B99461B78022BD1
:10C7B00000D18CE04B461B7C022B77D002232B4A06
:10C7C00011780B43B34313701F4A0123914605AE02
:10C7D0000FE51B68FFDE584605AE0630244B3200DD
:10C7E0000021FFF765FC8146002872D1204B184AD2
:10C7F0009B8814489946434600937168012300F0D2
:10C80000E1FD002818D14B46154A1B01D3186A4692
:10C81000127B9A737AE506217B1B9B00E218117448
:10C82000E35CB0E6596801320023064800F026FEBA
:10C830000423814633702EE60E2399464BE7C0460B
:10C8400078220020E42000201D1D0000C0210020CF
:10C850006C7E0200C421002078210020647E02004A
:10C86000D0210020707E0200147E0200842200206D
:10C87000882200205A46716823488B88D3800B8811
:10C88000138102AB5E894346204A0093012300F0E6
:10C8900099FD0E239946002800D064E71C4B360111
:10C8A0009E190123B373002399465CE701264B468A
:10C8B00036019B195968002398460093154A0233A4
:10C8C000114800F07FFD4B4642469A55E9E40026A8
:10C8D000EDE7082200211048FEF79AFC4B460A2B90
:10C8E00000D0F8E61C236B430C4A1B5D914680E4A4
:10C8F0000F2291461EE600237380FFF705FB814659
:10C90000E4E60123F8E7C046E42000206C7E020044
:10C91000D0210020707E0200882200201D1D000012
:10C9200010B50800FFF728FC10BDC046F0B55F4603
:10C930004D4656464446F0B487B0019000930B89AB
:10C940004D689B46002B00D1E0E02868800700D0AE
:10C9500083E02E0000240836032004E03768083600
:10C96000074200D079E00134A342F7D8002A00D171
:10C970009AE0A9469C4614885288694F3B68013367
:10C9800002933B6000239A46009B032B00D185E075
:10C99000644B5F6F032F50D808255E46AD1BA84639
:10C9A0006148406C0390404547D803200E880496A8
:10C9B00049880D00196F7918014088464646C9001C
:10C9C000891B89005918CA806A46128A6E460A81F4
:10C9D00000224A8152460A74624636788A750E7081
:10C9E000059A029E01378D80CE604C8288828A61D2
:10C9F0005F675B46002B39D04B4A039D126C2B00BE
:10CA00009446072263441340474A494694465A468F
:10CA10006746DB00D4006344E0460C193837B4465F
:10CA200003E0130008318C4219D01A00080060C8D6
:10CA300060C2BB42F5D14346F4E73C4B24011C19CC
:10CA40006389033B9A1A62810824200007B03CBC2A
:10CA500090469946A246AB46F0BD0324F5E76346EF
:10CA60000293314B304A5B6C5B445364019B002B57
:10CA700008D01A0000230299536093722C4B116066
:10CA80001B8913812B4B00241A785107DDD4042114
:10CA900000200A431A70FFF76FFBD6E7019B1B6863
:10CAA000059304239A4673E70022DE0004362C1D0A
:10CAB000AE1923880834D21892B2B442F9D1D51CE9
:10CAC000ADB20924FD2DC0D8184E3478002C06D103
:10CAD000738934891C192C19A4B2FF2C1CD9377CFA
:10CAE0000724002FB1D1738B378BDF19EF19BFB239
:10CAF000FF2FAAD80127063C3F015D19F619758161
:10CB00000B899C469B464B68994636E7002A00D025
:10CB10002FE700220325D7E700240027ECE7C046D3
:10CB2000802200200022002078210020D021002037
:10CB3000F02100208422002010B506490C220B7839
:10CB4000082B05D0044A9C00A050002201330B7032
:10CB5000100010BDC221002090220020F0B55F46D9
:10CB600056464D464446F0B48DB01422002107A825
:10CB7000FEF74EFBAA4F3B789A0712D5A94C250029
:10CB800020352368002B01D007A898470434A5421C
:10CB9000F7D100200DB03CBC90469946A246AB466A
:10CBA000F0BDDA07F5D4012213433B7000F0A8FB77
:10CBB0009D4B1E689D4B1C68082398468023DB0014
:10CBC000E018C0231B019C46A44463460293002343
:10CBD0009B46A044009303930193954A2168230048
:10CBE000914204D147E00433984200D1F1E01A6841
:10CBF0000132F8D05B465A46013303219BB29B4673
:10CC00008C4D120151558023DB009C46029B6444ED
:10CC1000E0446044A342E0D1009B002B00D0FCE044
:10CC20006B461B790B2B05D8834A9B00D3589F4634
:10CC3000002305938148436F032B12D8804A526C1E
:10CC4000082A0ED80321026F9A180A40D1008A1AC6
:10CC500001219200821811706946097D013311711A
:10CC600043673B785A0794D40422002013433B7057
:10CC7000FFF782FA8DE76368724A934204D0724AE2
:10CC8000934245D02300B2E75B461B011A00049390
:10CC900094460023674900258B5461440A0002230F
:10CCA0004C6041461381AA460D68013521D0674D7D
:10CCB000A446A9461C00130011E08A68B24202D9BA
:10CCC0001600012200924D88EA1C9500A21894B229
:10CCD00049191C8181420BD20A68013208D08A8826
:10CCE0004A4502D00A88002AE7D101229246EAE7A3
:10CCF0006446504A049B9446524663449A73022306
:10CD0000019A1A435B4601339BB201929B467AE734
:10CD1000039B002B2DD14E4D022341462C60AB804E
:10CD20000B68013377D0494AA146022394462C0070
:10CD300002E00A68013214D08A88624508D00A8865
:10CD4000002A05D08A68B24202D916000122009258
:10CD50004D88EA1C95009A1893B24919A380814224
:10CD6000E7D34C460822022B31D0019B1343019399
:10CD700049E730495B4602228C46354D1B015A5427
:10CD80002968634459601A815B4601339BB2049160
:10CD90009B46C1E70B20FDE6022305934AE70323E8
:10CDA000059347E702233A781E4C134301222500DE
:10CDB00093433B7020352368002B01D007A8984788
:10CDC0000434AC42F7D1E4E60123059332E7043A98
:10CDD000CBE71F4B1B680493002B14D015495B460F
:10CDE00002228C461B015A5463441A815A465C60E5
:10CDF000184B5A805B4601339BB29B460123019A34
:10CE00001A430192FFE6124B114A1C6002239380E1
:10CE1000013B0393F2E70422A7E7034B1E60FFE602
:10CE2000842200209022002080220020E420002084
:10CE3000DEC0ADDED0210020347E020000220020C2
:10CE400078210020FE011EF1FF011EF1FFFF00000E
:10CE500078220020F021002030B5040083B00D00BE
:10CE60000520002C0AD0002908D06B462000991D0F
:10CE7000FFF7ACF803000A20002B01D103B030BD4E
:10CE80006B46DB88074A1B01D3189A896168013217
:10CE90009A812960636800200C336B600123A372C0
:10CEA000ECE7C046D021002010B5040082B0052078
:10CEB000002C08D06B462000991DFFF787F803006F
:10CEC0000A20002B01D102B010BD6B46DB88084A56
:10CED0001B01D3189A890438002AF4D0A17A0029BA
:10CEE000F1D0013A9A8100230020A372EBE7C046FB
:10CEF000D021002070B5194B1A780223920701D473
:10CF0000180070BD03330028FAD0CA1C92B2043353
:10CF1000FD2AF5D8124D2B78002B10D16C892B8966
:10CF2000E318D3189BB2FF2B09D8002600231B015E
:10CF3000EB1812195A81068041800023E0E72C7C0F
:10CF40000723002CDCD16C8B2E8BA6199619B6B258
:10CF5000FF2ED5D80126063BE9E7C04684220020F3
:10CF6000D021002030B50F4B1A780223920701D44C
:10CF7000180030BD002812D002880233022AF7D8E8
:10CF8000094912018A18518944880D1B032DEFD4D9
:10CF900000230339091B518103804380E8E70523FF
:10CFA000E6E7C04684220020D021002010B50C4BBB
:10CFB0001A780223920701D4180010BD00290DD061
:10CFC0000C88084A02339442F6D04A88002AF3D0EB
:10CFD000023B0022FFF7AAFC0300EDE70523EBE785
:10CFE00084220020FFFF000070B50523002A04D032
:10CFF0000B4B1C780223A40701D4180070BD002934
:10D000000CD00D88074C0233A542F6D04C88002C7A
:10D01000F3D0023BFFF78AFC0300EEE70523ECE7C1
:10D0200084220020FFFF000010B50523002804D053
:10D030000C4B1A780223920701D4180010BD002966
:10D040000DD00C88084A02339442F6D04A88002A50
:10D05000F3D0013B0022FFF769FC0300EDE7052355
:10D06000EBE7C04684220020FFFF000070B5164A9F
:10D0700002241378990701D4200070BD13490234AB
:10D080008842F9D0124E0434716F0329F4D8114D3F
:10D090006D6C082DF0D80325346F0C192C40E50079
:10D0A0002C1B0525A400341925700131043D257180
:10D0B000E080716700245907DED4042100200B436F
:10D0C0001370FFF759F8D7E784220020FFFF000014
:10D0D000002200207821002070B5154A0224137820
:10D0E000990701D4200070BD12480634416F03290E
:10D0F000F8D8114D6D6C082DF4D80325046F0C1968
:10D100002C40E5002C1B06250131A4000555416784
:10D110000A490878002801D0012008730024590723
:10D12000E0D4042100200B431370FFF725F8D9E762
:10D13000842200200022002078210020F0210020FD
:10D1400030B583B06C4601AD29800A49E08009788A
:10D1500006340220890701D403B030BD002A06D06E
:10D16000002B04D029002000FEF7A2FFF4E70520E1
:10D17000F2E7C0468422002030B583B06B46D880E9
:10D180000A489C1D05780220AB0701D403B030BDCE
:10D19000002908D0002A06D0130000200A00210030
:10D1A000FEF786FFF2E70520F0E7C0468422002064
:10D1B00030B583B06B46D8800A489C1D05780220A4
:10D1C000AB0701D403B030BD002908D0002A06D037
:10D1D000130020000A000021FEF76AFFF2E7052095
:10D1E000F0E7C04684220020002805D0002903D0A3
:10D1F000036800200B6070470520FCE729DF7047BB
:10D2000028DF704770B50B4C0500626E0020042AC1
:10D210000FD0236ED318032B00D9043B0132626672
:10D2200018225343E41800212000FDF7F1FF0120EC
:10D230002C6070BDB422002070B52F4C86B0636E98
:10D24000002B10D0256E6E007319DB00E3181A7ADC
:10D25000012A0AD0022A25D19889FFF7D1FF112887
:10D2600015D000281ED106B070BD9A8AD88A121A2D
:10D27000FF2A14DC92B27319DB00E318D9681B692A
:10D28000800009181818FFF7B9FF1128E9D1022208
:10D290001A490B789343042213430B70E3E780226F
:10D2A0005200E8E71022002102A8FDF7B1FF731930
:10D2B000DB00E3181A7A012A15D0022A07D10122CD
:10D2C00002A90A709A89DB894A81D31A0B817519E0
:10D2D000ED0063195B68092101930393635902A868
:10D2E0009B689847BFE7002202A90A701A699B8AC7
:10D2F00004928B81EBE7C046B4220020B0220020CC
:10D30000F0B5454657464E46E0B42A4B5D696B1C66
:10D310004AD0294B99461B789846DB073ED4274BC9
:10D3200027499C46C91A090932D00F0008016044F8
:10D330001A68002A03D05A68541EA241BF1A10333B
:10D340008342F5D1002F23D000260024F0B263469B
:10D350000022A24606E05C68002C06D001321033A1
:10D3600091420BD01C68002CF5D15C7B5445F5D95B
:10D37000D0B20132A24610339142F3D1030163448B
:10D380001A7B5D609202AD1A01361D60B742DCD196
:10D39000012342461A4313004A46137000201CBC66
:10D3A00090469946A246F0BD80235B055D69AD02BB
:10D3B000AFE7C04600100010B0220020E42000209B
:10D3C000F4200020F0B54F464646C0B4284E99469A
:10D3D000337883B00500884617000124DB0711D598
:10D3E000002817D0234B013498420BD3224B98428C
:10D3F00008D2002A0CD04346002B09D03B43062418
:10D400009B0709D0200003B00CBC90469946F0BDA4
:10D410000324F7E70224F5E72B68013C9845F1D394
:10D420004B466A689B0043449A42EBD34B46013C0F
:10D43000002BE7D001A8FFF7E5FE03340028E1D078
:10D44000019B0A9A1D605A600122019B00241A72F6
:10D4500042461A614A469A820622DF6033781342B6
:10D46000D0D1043A13433370FFF7E6FECAE7C04653
:10D47000B0220020E4200020F4200020F0B54F4628
:10D480004646C0B4254E9946337883B005000F0058
:10D4900090460124DB070ED5002814D0204B013420
:10D4A000984208D31F4B984205D2002909D0BB05EA
:10D4B0000624002B09D0200003B00CBC90469946EE
:10D4C000F0BD0324F7E70224F5E72B68013C9F42F7
:10D4D000F1D343466A689B02FB189A42EBD343465A
:10D4E000013C002BE7D001A8FFF78CFE0334002895
:10D4F000E1D04A46019B02215A601D604346019AD1
:10D50000BF0A1382117297810622337800241342D6
:10D51000D1D10B433370FFF78FFECCE7B022002050
:10D52000E4200020F4200020002804D0034B5B6E90
:10D530000360002070470320FCE7C046B4220020AF
:10D54000F0B557464E464546E0B4A64EA64C337855
:10D5500084B0276E9A0746D5022800D1ABE0032895
:10D5600000D077E0A14A13780133DBB21370032BAC
:10D5700000D86FE0002300211370684610227D0060
:10D580009846FDF745FEEB19DB00E3181A7AE946E9
:10D59000012A00D1DCE0022A07D1694601220A7083
:10D5A0009A89DB894A81D31A0B814A460821ED19F1
:10D5B000ED0063195B68536063599B684846984760
:10D5C000636E013B6366002B00D0E9E002213278F4
:10D5D0008A433270226E01322266042A34D100223C
:10D5E0000027226637E004221A4233D09343626E4A
:10D5F0003370002A28D002227D001343EA19D2009A
:10D60000A2183370117AEB19DB00E31801292ED12F
:10D61000D08AEB19DB00E3189A8A121AFF2A00DD80
:10D6200071E092B2EB19DB00E318D9681B69800046
:10D6300009181818FFF7E2FD112861D1022233788A
:10D64000934304221343337004B01CBC90469946A4
:10D65000A246F0BD636E002BF6D07D00EA19D20021
:10D66000A218EB19117ADB00E3180129D0D00229A6
:10D6700041D0102200216846FDF7CAFDEB19DB00FE
:10D68000E3181A7AE946012A40D0022A07D16946EE
:10D6900001220A709A89DB894A81D31A0B814A4692
:10D6A000ED19ED0063195B68092153606359484621
:10D6B0009B689847C8E700239A4652464B4B7D002B
:10D6C0001A70EB19DB009846A04443461B7A012BE5
:10D6D00025D0022BBED1434642469B89013393811C
:10D6E000D38901339BB2D381128A9A4238D0636EB8
:10D6F000002BA9D043469889FFF782FD11289DD0C1
:10D700000028A1D0B5E7802252008BE700226946AD
:10D710000A706A4619699B8A02919381BFE7434662
:10D72000998AD88A0B1AFF2B10DD80225200EB1940
:10D73000DB009846A0444346801880B2D8828142DC
:10D7400035D0636E002B00D063E77DE79AB2EEE739
:10D750006A464146117019699B8A0291938124E7B8
:10D76000102200216846FDF753FD43461B7AE94627
:10D77000012B32D0022B09D101234A4613704346B4
:10D7800049469A89DB894A81D31A0B814A46ED19A9
:10D79000ED0063195B680021536063599B680DE7D6
:10D7A000226E571C2766042F00D118E755E7102278
:10D7B00000216846FDF72CFD43461B7AE946012B04
:10D7C000D8D100236A4613706B46424612699A60AC
:10D7D00043464A469B8A9381D8E76B4652461A7065
:10D7E000F3E7C046B0220020B42200201C23002012
:10D7F0000123034215D14210134214D18210134267
:10D8000013D1C210134212D10211134211D142118D
:10D81000134210D1821113420FD1C0110FD1094808
:10D8200070470020FCE70120FAE70220F8E7032018
:10D83000F6E70420F4E70520F2E70620F0E70720EA
:10D84000EEE7C046FFFF000010B5002819D0002900
:10D8500017D00488944224D04488944223D08488EA
:10D86000944222D0C488944221D00489944220D08A
:10D87000448994421FD0848994421ED0C08990422A
:10D8800000D010BD0720002B05D0012383400A786B
:10D8900013430B70F5E7012282400B7893430B7022
:10D8A000EFE70020EFE70120EDE70220EBE70320A0
:10D8B000E9E70420E7E70520E5E70620E3E7C046BF
:10D8C000F0B544465F4656464D46F0B483B00CACC6
:10D8D0002478002822D0002920D0002A1ED00588D4
:10D8E0009D4200D1E1E045889D4200D1E8E0858875
:10D8F0009D4200D1E6E0C5889D4200D1E4E0058963
:10D900009D4200D1E2E045899D4200D1E0E0858959
:10D910009D4200D1DEE0C089984206D003B03CBCF5
:10D9200090469946A246AB46F0BD072001238340AE
:10D930004842DBB2002C5DD103342040904200D934
:10D940001000042A00D9B6E01000DC430D78E4B2E0
:10D9500025400D70012800D1C4E04D7825404D7060
:10D96000022800D1C2E08D7825408D70042800D0B7
:10D97000BAE0CD782C40CC7004248242CED0151A67
:10D98000AC46043DAD080135A946561EAD00A8467B
:10D99000361A022E19D91F023D001E041D432E43C4
:10D9A0001F0637438346F8430025002682468B44F2
:10D9B00058464759504607405846013647510435A6
:10D9C0004E45F5D34444C445A8D0DB430819057837
:10D9D000DBB21D400570601C82429FD90818057893
:10D9E00002341D400570A24298D90C1922781340C8
:10D9F000237093E703242040904200D91000042AAA
:10DA000055D810000C781C430C70012866D04C7857
:10DA10001C434C7002285FD08C781C438C70042807
:10DA20005ED1CC781C43CC700424824200D175E7CF
:10DA3000151AAC46043DAD0801350195561EAD00E2
:10DA4000A846361A022E1BD91E021E43B246554660
:10DA50001F042F4300251E063743BA460026A94659
:10DA60000818574685592F430125AB46019DD944D7
:10DA700087510436A945F4D34444C44500D14DE749
:10DA80000D19287818432870601C824200D845E799
:10DA90000818057802341D430570A24200D83DE7FE
:10DAA0000C1922781343237038E700203EE7002446
:10DAB0000028BDD0A6E70024002800D15FE744E796
:10DAC000012033E7022031E703202FE704202DE770
:10DAD00005202BE7062029E70224A6E70124A4E776
:10DAE0000324A2E7012448E7032446E7022444E78D
:10DAF000002819D00388934218D0438893421BD042
:10DB0000838893421AD0C388934219D003899342E1
:10DB100018D04389934217D08389934216D0C38982
:10DB20000020934214D070470020FCE700231941E5
:10DB3000012308001840F6E70123F8E70223F6E77F
:10DB40000323F4E70423F2E70523F0E70623EEE7D7
:10DB50000723ECE730B50023002935D0D40702D5E0
:10DB60000B8883800123940704D55C004D88041939
:10DB7000A5800133540704D55C008D880419A58065
:10DB80000133140704D55C00CD880419A580013346
:10DB9000D40604D55C000D890419A58001339406D0
:10DBA00004D55C004D890419A5800133540604D5C1
:10DBB0005C008D890419A5800133D21104D05A006C
:10DBC000C989821891800133036030BD0B7B002B23
:10DBD00004D101220B680271036070474B68002278
:10DBE000F9E7C04610B502790300002A08D048685A
:10DBF0001C688A68011B91420CD9A018186008E0C3
:10DC000004688A680868211A914207D801221860BE
:10DC10001A7110BD002218601A71FAE7A01A186074
:10DC2000F7E7C046A022044BD205D358034A125C42
:10DC30000120D34098437047040500007C7E020019
:10DC4000044BA0211A5C01239340034AC9058B5061
:10DC50007047C0467C7E02000C050000044BA021EA
:10DC60001A5C01239340A122C905D2008B50704752
:10DC70007C7E0200A022A1238021D205DB00890343
:10DC8000D1508021C903D15080210904D150802175
:10DC90004904D1507047C046A0228021064BD205CE
:10DCA0008903D1508021C903D15080210904D1506A
:10DCB00080214904D15070470C050000084AA0217A
:10DCC000105C0122824010B51400A120054BC9054B
:10DCD000CB58C0009C431340034A0C508B5010BDDE
:10DCE0007C7E0200040500000C050000A023032236
:10DCF0000B49DB055A5004315A500A495A50043135
:10DD00005A50A1228021D200890399508021C90351
:10DD100099508021090499508021490499507047F5
:10DD2000540700005C070000A223A022DB00D205FC
:10DD3000D358034A125C0120D34098437047C04631
:10DD4000787E020011280AD012280AD013280AD09F
:10DD50001438431E98410323404218437047002063
:10DD6000FCE70120FAE70220F8E7C046014B185C07
:10DD70007047C046787E020010B51A4B1A68002A18
:10DD800014D0002280211A60C2220123164C920076
:10DD9000C9058B506370A368002B07D01A68002058
:10DDA0005B68A2609847A368002BF7D10F4B1A68F5
:10DDB000002A15D000221A60C223802202219B0073
:10DDC000D205D1500123084CA3702369002B07D042
:10DDD0001A6801205B68226198472369002BF7D1FC
:10DDE00010BDC04600010040202300200401004077
:10DDF00010B500280BD1064CA368002B07D01A6879
:10DE000000205B68A2609847A368002BF7D110BD83
:10DE10002023002030B583B06B46DD1D0023280091
:10DE20002B70FEF73BF8134C2378002B13D1636063
:10DE3000A3602361E360104B1B68DB0715D509F075
:10DE40004DFD002805D1A32380220121DB00D2054E
:10DE5000D15001232370E36828780133E360012364
:10DE6000A370FEF73BF803B030BD0321002000F0A3
:10DE700005F8E4E72023002000E100E0F0B50028E9
:10DE80001EDBFF261A4B37009C4603238208C02561
:10DE9000C0B20340DB0089019F40314099409200AD
:10DEA0006244AD005459BC43214351511F23C0214A
:10DEB00018401E3B83400E4A490053501360F0BD8A
:10DEC000FF250C4A2E00944603220F23C0B20240C5
:10DED000D20089019640294091400340083B9B08AD
:10DEE0009B006344DC69B4432143D961DEE7C0464B
:10DEF00000E100E000ED00E070B54425184C08207A
:10DF0000665D002E00D070BD01234022FF215B42E0
:10DF1000A3540132A1540132A3542362013263623B
:10DF2000A362E36223636363A363E363FC390238A0
:10DF3000A35423606360A360E36023616361A36112
:10DF4000E361FFF79BFF074B80211E60C123064A58
:10DF50009B000906D150012300206355D3E7C0463A
:10DF6000342300207C610040006000404423034AC9
:10DF7000D05C431E9841C0B27047C0463423002095
:10DF8000F0B5474680B4524C0825231820331E783C
:10DF90007F2E03D8280004BC9046F0BDCD78AC4657
:10DFA000002D36D02568013500D186E004230026F7
:10DFB0009846731C9D006759013733D0B31C9845B0
:10DFC00025D99D00675901372CD0F31C98451ED9DF
:10DFD0009D006759013725D0331D984517D99D00FD
:10DFE000675901371ED0731D984510D99D00675998
:10DFF000013717D0B31D984509D99D0067590137DE
:10E0000010D00736B04502D9E369013308D00425A2
:10E01000C0E72569013555D0082304269846C8E78E
:10E0200007231C256251624627185EB220373E70D6
:10E03000002A02D1E3183C3318708B78002B14D1DE
:10E040000300A0254A78C133FF3392009B00ED0501
:10E050005A51CB78002B14D1A4193C340B78227878
:10E060009B0113432370002594E7A022D205944618
:10E07000E025022783006344ED005A59BA435A5100
:10E08000E7E7144A0B789446A221B6006644C9001B
:10E090007458114A000222407250F8225201104076
:10E0A0000500C0221804030028009202745813408F
:10E0B00018432043705000256CE7002522601D7036
:10E0C0000026BAE7042522611D702E002B00B1E75F
:10E0D0003423002000600040FFE0FCFF0023F0B587
:10E0E000254C22182032D356032B18DDE3183C337D
:10E0F0001B789B09032B33D0012B39D0C021890217
:10E10000A023DB059C46E02380006044DB00C4586C
:10E110001A4A2240C250C2580A43C250F0BDD8B277
:10E120000328FBD8164DA227AC4601269800604470
:10E13000FF00C5593543C5511800654600274030DA
:10E14000800080B247510029E8D0127852B2920084
:10E150001259002AE2D09E40C1239B00EE50DDE719
:10E16000A223A022DB00D205D358C340DB07C5D4CD
:10E1700080218902C4E7C04634230020FFFFFCFF52
:10E1800000600040A222A0210300D200C9058858E7
:10E19000D840012318407047F0B54D465F465646BB
:10E1A00044460023F0B4C64A87B0039313680025A1
:10E1B000012B00D1DDE1C34B1A68012A00D1CCE16B
:10E1C000C14B1A68012A00D1BBE1C04B1A68012A71
:10E1D00000D1AAE1BE4B1A68012A00D199E12B07B0
:10E1E0001CD0BC4BA2279846032301260024994645
:10E1F000FF002E420ED0B84AA3009A18D059D15928
:10E200004246D358002B05D04A46090CC0041140A1
:10E21000C00E984701347600042CEAD1002D06DBAD
:10E2200007B03CBC90469946A246AB46F0BD0023E1
:10E230000493013B059341339846C026A54C4346C1
:10E24000E1564B1C2CD007220123C9B208000A401A
:10E250009340B043C70805AAD25D134220D02218CC
:10E2600020321278890952B29200A2589146002AAF
:10E2700000D10EE1032900D10EE1A025ED05AC4649
:10E2800082009444E0226546D200AA5803ADEF5DB7
:10E290009203920F3B4200D0D2E0032A00D172E1F8
:10E2A00000274123E1564B1C37D007230125C9B273
:10E2B0000B409D4008002B00B043C20805ADAD5C8B
:10E2C0002B422AD02518AC462025A946CC446546C9
:10E2D0002D7889096DB2AD0065590191A946002DCF
:10E2E00000D1FBE0032900D1FBE08500AA46A02570
:10E2F000ED05AC46E025ED00E244AC4655466146EE
:10E3000069588903890F8C4603A98A5C134200D09F
:10E31000A3E06346032B00D147E14223E1564B1CA7
:10E3200036D007230125C9B20B409D4008002B00C1
:10E33000B043C20805ADAD5C2B4229D02518AC46D0
:10E340002025A946CC4465462D7889096DB2AD00DB
:10E3500065590191A946002D00D1A3E0032900D100
:10E36000A3E08500AA46A025ED05AC46E025ED001A
:10E37000E244AC465546614669588903890F8C468C
:10E3800003A98A5C134277D16346032B00D146E18F
:10E390004323E1564B1C36D007230125C9B20B405D
:10E3A0009D4008002B00B043C20805ADAD5C2B4278
:10E3B00029D02518AC462025A946CC4465462D78A1
:10E3C00089096DB2AD0065590191A946002D00D1B2
:10E3D00092E0032900D191E08500AA46A025ED0531
:10E3E000AC46E025ED00E244AC465546614669582E
:10E3F0008903890F8C4603A98A5C134213D16346B3
:10E40000032B00D1ECE0002F00D109E7A223A022CA
:10E41000DB00D205D358039A934200D100E703935F
:10E42000049B05930BE76346022BECD1019B032B66
:10E4300000D118E14B46002BE5D00199C847E2E72F
:10E44000022A00D02CE7032900D103E100274B4624
:10E45000002B00D125E7C84723E76346022B00D0F5
:10E460005BE7019B032B00D1F7E04B46002B00D16B
:10E4700053E70199C84750E76346022B88D1019BB7
:10E48000032B00D1ECE04B46002B81D00199C8470B
:10E490007EE7032900D003E704AAD21915781D43AB
:10E4A0001570EAE6032900D072E704A98C4694446B
:10E4B0006146097819438A46614655460D7050E712
:10E4C0000061004004610040086100400C610040B0
:10E4D0007C6100403423002000600040032900D00C
:10E4E0001BE704A98C4694446146097819438A467F
:10E4F000614655460D70F8E6032984D104A98C467F
:10E5000094446146097819438A46614655460D7020
:10E5100062E700221A6080231B061D43A022A2236B
:10E52000D205DB00D358039359E6C1224F4992002C
:10E53000895808220A4200D14CE60021154319608F
:10E5400048E6C12249499200895804220A4200D172
:10E550003BE600211543196037E6C122434992008A
:10E56000895802220A4200D12AE600211543196087
:10E5700026E6C1213D48890041580B4200D11AE6E8
:10E580001560013517E6032900D05FE7802292026B
:10E59000E0236546DB00ED58354F2F406546EF50D0
:10E5A000EF583A43EA50012751E7019B032B00D073
:10E5B0005BE780229202E0235146DB00C958013715
:10E5C0008B462B49FFB28C465946654629408C46FE
:10E5D00051466546CD50C9580A435146CA5044E792
:10E5E000019B032B00D025E780229202E0235146B5
:10E5F000DB00C95801378B461D49FFB28C4659468E
:10E60000654629408C4651466546CD50C9580A4357
:10E610005146CA504B46002B00D00EE7F6E6019B50
:10E62000032B00D02FE780229202E0235146DB002B
:10E63000C95801378B460E49FFB28C46594665468C
:10E6400029408C4651466546CD50C9580A4351462B
:10E65000CA5018E7C02292029AE7C0229202AAE7A3
:10E66000C0229202E1E7C0229202BFE700600040B0
:10E67000FFFFFCFFC12310B5614A9B00D35884B053
:10E680009B054FD592235B00D15800294AD0002129
:10E69000D1508121E5338900FF33D150594B997E08
:10E6A000002901D101315160022269460A7090218E
:10E6B0005348C9004258425069460392DA7D684681
:10E6C0000A72DA68196801920022DA751A765B68B4
:10E6D00098478E214A4A49005358002B0FD0494B86
:10E6E0009C8A987D84424FD200205050998A986825
:10E6F000405C998A013189B29982434BD050A22360
:10E700003F4A5B00D15800290AD00021D1503D4B2F
:10E71000997E002901D001211160DA7D002A42D1C1
:10E7200004B010BDC123364A9B00D3585B07D0D537
:10E73000842149005358002BCBD0324BD87D002880
:10E740003ED15050A321C90052585A7E8242C0D1B6
:10E750001A7E002A42D19A7E002A02D10121284A3B
:10E7600051608120C22226498000920088500022F8
:10E7700068460121DA755A7E01700272DA681968FA
:10E7800001925B689847A4E7002454500028B6D053
:10E790006A46147010729A689C75196801925B68D9
:10E7A00068469847ABE7002268460121DA755A7E31
:10E7B00001700272DA68196801925B689847AFE7E6
:10E7C00000205050A320C000597E1258D8684254EF
:10E7D0005A7ED87D0132D2B25A76B6E7DA751A6916
:10E7E000D968DA6000226C46587E1A765A76013271
:10E7F000207201912270196868465B68984768E743
:10E80000002000407C2300201C05000010B50220E1
:10E81000FFF754FA10BDC046F8B546464F46C0B49F
:10E820000D000600FFF78EFA0400032812D8012D10
:10E8300014D0002D22D0022D0CD143001C181E4BE9
:10E840001C196578002D05D01C4B1B68002B01D0CE
:10E85000280098470CBC90469946F8BD164B4700D7
:10E86000984642463B18D55C43445B78002B12D156
:10E870003F194744BA78124B1A55E3E71148FDF7A0
:10E88000B1FA0D4A63001B19D3180D4A9B78155D28
:10E890009D42DFD1D6E70C4B0A4899460B4B4A46BE
:10E8A0001B689900C9184900FDF73CFA0028DFD120
:10E8B0004B461E70DCE7C04610240020C423002015
:10E8C0000C240020C8230020BD230020C0230020EA
:10E8D00070B5724B1B68DB0700D470BD704E714D74
:10E8E00033782C78002B05D1172CF6D86E4AA3006C
:10E8F000D3589F4600233370FFF7BCF9F4E7012398
:10E9000001203370FFF7DAF9684B00221B68684872
:10E910009900C918FDF706FADFE7012301203370DB
:10E92000FFF7CCF9614B002219686148FDF7FAF94D
:10E93000D3E7604D2800FDF755FA11231C1B00D1C9
:10E940008FE0002800D08CE0012C0CD0C83064216E
:10E95000604309F07FF8554B00221B6843432800B1
:10E960001900FDF7DFF90220FFF76AF9B5E7FFF7B5
:10E9700081F912232B70B0E7FFF77CF90020FFF735
:10E980005FF913232B70A8E7FFF786F92C70A4E733
:10E99000FFF770F900232B709FE70020FFF742F983
:10E9A000002862D00020FFF759F92821022C55D009
:10E9B0002C7022E0FFF770F90C232B708DE7FFF726
:10E9C00059F90020FFF73CF90120FFF739F9152329
:10E9D0002B7082E7FFF74EF90120FFF731F914237E
:10E9E0002B707AE70020FFF71DF9002850D0002097
:10E9F000FFF734F9082103232B702C4B00221B68EE
:10EA00002B485943FDF78EF967E70020FFF70AF915
:10EA1000002833D00020FFF721F928210423EBE759
:10EA20000020FFF70DF907232B7056E70020FFF7B2
:10EA3000F9F8002828D00020FFF710F905232B70E3
:10EA40001A4B002219681A484900FDF76BF944E790
:10EA50000020FFF733F906232B7063E716392C707B
:10EA6000CBE70220FFF7FAF837E70020FFF7E8F8D6
:10EA70000421022C9CD102392C70BEE70020FFF744
:10EA8000DFF804210423B7E70020FFF7D9F8D5E722
:10EA90000020FFF7D5F802210323ADE7B8230020BB
:10EAA000BC230020E8230020807E0200C023002039
:10EAB00098230020EC23002010B50078FFF742F9DE
:10EAC00003280BD843001818054B18184078002865
:10EAD00004D0044B1B68002B00D0984710BDC046E3
:10EAE00010240020C423002010B5FFF71DF910BD2D
:10EAF00070B5804B05001B680024DB0701D42000A3
:10EB000070BD7D4E3378002B06D1172D00D9EEE075
:10EB10007A4AAB00D3589F463470FFF7ABF8F4E75E
:10EB2000012301203370FFF7C9F8754B00221B68E1
:10EB300074489900C918FDF7F5F80400DFE70123D0
:10EB400001203370FFF7BAF86D4B002219686D4849
:10EB5000FDF7E8F80400D2E7FFF78CF80120FFF793
:10EB60006FF81422684B00241A70C8E70020FFF7E2
:10EB700067F80722644B00241A70C0E7FFF77AF8A1
:10EB80000020FFF75DF80120FFF75AF815225E4BD1
:10EB900000241A70B3E70020FFF744F8002800D1E2
:10EBA0009AE00020FFF75AF808210322564B1A700A
:10EBB00077E00020FFF736F8002800D186E000203B
:10EBC000FFF74CF828210422F0E70020FFF72AF88D
:10EBD000002800D185E00020FFF740F805224A4BCD
:10EBE00048481A70464B002219684900FDF79AF808
:10EBF000040084E70020FFF761F80622424B1A70F8
:10EC0000A2E7FFF749F80C223F4B00241A7076E781
:10EC10003E4E3000FDF7E6F804001120451B49D0B8
:10EC2000002C47D1012D0DD0B7306421684308F086
:10EC300011FF334B00221B68434330001900FDF7DE
:10EC400071F804000220FEF7FBFF58E7FFF712F807
:10EC500012222D4B00241A7051E7FFF70BF8002009
:10EC6000FEF7EEFF1322284B00241A7047E7FFF748
:10EC700013F8254B00241D7041E7FEF7FBFF00222F
:10EC8000214B00241A703AE70020FEF7CBFF002842
:10EC900014D00020FEF7E2FF2821022D25D01A4BC8
:10ECA0001D70174B00221B6816485943FDF73AF8B0
:10ECB000040024E70220FEF7D1FF20E70020FEF742
:10ECC000BFFF0421022DEAD10239E8E70020FEF758
:10ECD000B7FF0421042269E70020FEF7B1FF0221FB
:10ECE00063E70020FEF7ACFF78E71639D7E700248A
:10ECF00005E7C046B8230020BC230020E07E0200C8
:10ED0000C023002098230020E8230020EC230020CB
:10ED1000204B70B51960204B040018601F4B1A601F
:10ED2000830713D50E221E4B1E481A700132DA706B
:10ED300001329A7101325A724A080421FCF7F0FA42
:10ED4000051E19D0E30712D4280070BDC3070DD4E7
:10ED5000154A00211548FCF7CBFF051EF4D1144AD3
:10ED600001211448FCF7C4FF0500EDE70025FEF77C
:10ED7000BDFF002DE8D1EBE7FCF72CFB051EE1D130
:10ED80000D4A00210D48FCF7B3FF0500E307F0D55D
:10ED9000EDE7C046C0230020B8230020C423002094
:10EDA00010240020487F0200D1E80100447F0200C7
:10EDB0000DE80100687F0200B9EA0100407F02000F
:10EDC00003000720032B00D97047012A13D0012923
:10EDD00017D0002908D0022919D15800C3180D48AE
:10EDE000C3185A700020EFE75800C3180948C31829
:10EDF0009A700020E8E700220129E8D11A000E32BB
:10EE0000D2B258000349C3185A540020DCE7072047
:10EE1000DAE7C0461024002010B5FEF7A7FFA023B4
:10EE2000DB059C46E02380006044DB00C158054AB6
:10EE30000A40C021C250C25889020A43C250002071
:10EE400010BDC046FFFFFCFF10B50020FFF7E4FF38
:10EE5000002802D0062800D010BD0120FFF7DCFFFB
:10EE600003000020002BF7D01800062BF4D100205F
:10EE7000F2E7C04610B50388102B08D0112B05D13E
:10EE8000294A1368013B1360002B07D010BD264CA4
:10EE90002368002B11D001332360F7E70122022100
:10EEA0000020FFF78DFF00282BD0072829D01F4B0B
:10EEB0001B68002BEAD09847E8E7012200210020D8
:10EEC000FFF77EFF002808D0072806D0174B1B68E5
:10EED000002B00D098472368DDE70722022101209C
:10EEE000FFF76EFF002801D00728EFD1042202218E
:10EEF0000020FFF765FF0028EDD00728E6D1236842
:10EF0000C9E7072202210120FFF75AFF002801D09C
:10EF10000728CCD10A2200210020FFF751FF00284A
:10EF2000B4D00728C3D1B1E7202400201C2400203E
:10EF30001F4B10B50C1E186006D00120FFF7D4FD42
:10EF4000002823D0022323701A4B1B68002B01D00A
:10EF5000002010BD012202210020FFF731FF002810
:10EF600001D00728F5D1072202210120FFF728FF51
:10EF7000002801D00728ECD10A2200210020FFF749
:10EF80001FFF0028E4D00728E3D1E1E70020FFF7C6
:10EF9000ABFD002805D1074B20701B68002BD7D193
:10EFA000D8E70B232370034B1B68002BD0D1D1E78C
:10EFB0001C2400202024002076DF704778DF704773
:10EFC0007ADF70477CDF7047A8DF704767DF7047E4
:10EFD0003CDF704748DF704710B5FCF713FA10BDEF
:10EFE00010B50A490A48FEF7FDFDC1B2094807F00D
:10EFF000BFF8082302009A4307D0074B984204D079
:10F00000064B984201D0FCF7FDF910BDCC2400203E
:10F01000BC240020702400200430000001340000D3
:10F0200010B50400FEF78CFA200001F07DFD10BD44
:10F0300000B5B1B0082812D82F4B80001B589F464E
:10F040000020FFF755FD00284DD1FFF7FDFE0028F9
:10F0500046D1FFF7BDFF002801D0FCF7D3F931B04E
:10F0600000BD0320FFF744FD0028F8D0F5E7234B4F
:10F070001888234B9842F2D010A905F029FD0528E5
:10F08000EDD0002835D15120684401F07FFD0028E3
:10F09000E5D0E2E7082310AA00930193694601AB8B
:10F0A00002A805F0DFFC002820D1019B10AA0099DE
:10F0B00002A801F081FD0028D1D0CEE70520FFF79E
:10F0C00017FD0028CBD0C8E70220FFF711FD00286C
:10F0D000C5D0C2E70420FFF70BFD0028BFD0BCE776
:10F0E000FCF790F9B5E7FCF78DF9AEE7FCF78AF984
:10F0F000DBE7FCF787F9C6E76C7F020026240020D7
:10F10000FFFF0000F8B5204E204F102231003800DC
:10F11000FCF77EF808231E4D30002B6005F0CAFC7A
:10F1200000232B60B0422CD0082403E0013C002CCB
:10F1300008D02B685A1C5B00F8522A6005F0BAFC14
:10F14000B042F3D12968380005F07EFC002812D1C6
:10F150002968380005F0A0FC062801D000280DD150
:10F1600000220C4B03201A7001F05CFC002801D037
:10F17000FCF748F9F8BDFCF745F9E9E7FCF742F977
:10F18000EEE70021DFE7C046FFFF0000AC240020CF
:10F19000C4240020C824002010B5037882B00E2BB0
:10F1A00014D81B4A9B00D3589F461A4B82881A805A
:10F1B000037A012B0AD118480168072906D84C1C8C
:10F1C0000460164849000A52154A137002B010BD77
:10F1D00080680028FAD0FCF715F9F7E7FDF77CFF07
:10F1E0000E28F3D0082302009A43EFD0F3E700691A
:10F1F0000028EBD0EFE7FFF785FFE7E705F01AFC03
:10F20000E4E7002301A90B70408805F00FFCDDE75F
:10F21000907F020026240020C4240020AC2400207B
:10F22000C824002010B5FCF7EDF810BD10B5FCF7B0
:10F23000E9F810BDF0B544465F4656464D46F0B479
:10F24000040087B001F048FE200005F06DFB2000AF
:10F25000FFF710FE2388112B00D187E01BD9512B1B
:10F2600000D1AEE0552B6CD03A2B6AD0200001F0D3
:10F27000FBFB200001F0DCFD2100844807F0E2FAEE
:10F280002100834806F05AFE07B03CBC90469946E0
:10F29000A246AB46F0BD022B00D1ADE0102B5AD0F8
:10F2A000012BE3D17B4B9B463E235A46D35C002B7C
:10F2B000DCD03C23D35C784F1A0094465A46009326
:10F2C0005B00019363449B00D2189168567889468D
:10F2D0005168B2B292465A46D55C23003400984633
:10F2E0000E000DE002AB08220021484608F0E6F9C6
:10F2F000002800D09DE00135ADB2AA4500D2A9E0BA
:10F300000822002102A8FBF783FF02AB9C46A81C41
:10F31000621B7119604408F022FD0120FFF7E4FB35
:10F32000002805D0022202AB1B78134302AA1370F7
:10F330003B78002BD6D002AA0821484608F0FEF9F7
:10F34000D6E7A0881321FFF737FE002800D18DE70C
:10F35000FCF758F88AE70720FFF7CAFB002801D01E
:10F36000FCF750F8A2884D4B1A807FE73E25494BA9
:10F370005A5D002A4CD10122484B52421A80002289
:10F38000474B11201A70FFF7B3FB00283DD1454DC4
:10F390002B78002B00D169E7434F444E3968300089
:10F3A00005F052FB00286DD13968300005F074FB80
:10F3B000062803D0002801D0FCF724F800232B7086
:10F3C00054E7A379002B00D150E7A27B043A022A2C
:10F3D00000D94BE7023B5A1E93410222D31A02AADC
:10F3E0001370C1235B009380A0881100FFF7ECFD30
:10F3F000002800D13AE7ABE7284B00211888FFF737
:10F40000E5FD002800D131E7A2E7FBF7FBFFBEE7EF
:10F410003C260027995D013A4800401880000131E0
:10F420001818C9B2476099555A550529A3D19F5557
:10F43000A1E71F4B444698420DD1009A019B944688
:10F440005A4663449B00D2185278AA4203D35A46C4
:10F450009D540BE744463C215B4600255B5C3E2007
:10F460005A00D21892005A4455605A465E460133FB
:10F47000DBB25354125C013A3254052B00D0F5E64E
:10F480007554F3E6FBF7BEFF8EE7C0460426002066
:10F490007024002080270020882400205C20002089
:10F4A00024240020C8240020C4240020AC240020F0
:10F4B00004300000F0B557464E46454683B29946A3
:10F4C000344BE0B49846022382B005000E000024BD
:10F4D000314F9A460BE06B4608220021380008F0B5
:10F4E000EDF8002824D10134A4B2A14541D308226B
:10F4F00000216846FBF78CFEA01C2A1B31196844CA
:10F5000008F02DFC0120FFF7EFFA002805D06B462C
:10F5100052461B7813436A46137043461B78002BF0
:10F52000D9D06A460821380008F008F90028DAD056
:10F530001A4B984223D1A1451BD33E23184A984623
:10F54000D05C062815D0013B9C46D35C01309A461E
:10F5500059005144890053189F605E605D704346B6
:10F56000D05453460133DBB25454052B0FD06146BF
:10F57000535402B01CBC90469946A246F0BD0828E0
:10F58000F7D0084B9842F4D0FBF73CFFF1E700239B
:10F59000EDE7C04688240020042600200430000047
:10F5A000802700200134000010B50B7884B0052BB3
:10F5B0002ED0062B28D0042B01D004B010BD8B799F
:10F5C000022BFAD1CB79002BF7D10F336B44009388
:10F5D0000122002300211D4808F0E6F800282BD165
:10F5E0001B4C2378002B17D06B46DB7B9B07E4D4A6
:10F5F0001120FFF77DFA002824D116490620FFF7D5
:10F6000059FF00232370D8E70022134B1A70D4E768
:10F610000122114B1A70D0E76B46DB7B9B07CCD5E0
:10F620001020FFF765FA002809D10C490620FFF7E2
:10F6300041FF01232370C0E7FBF7E4FED0E7FBF7AF
:10F64000E1FEF2E7FBF7DEFED7E7C0460426002026
:10F65000242400204820002088240020502000205E
:10F6600010B5072835D028D90A2816D00E2813D16E
:10F67000214B1A88214B9A420ED0214C012021683F
:10F68000FFF718FF23681F4A013323601378013303
:10F69000DBB21370062B2AD010BD0020FFF728FA2A
:10F6A000002821D1FFF7D0FB00281AD1FFF790FCEA
:10F6B0000028F1D0FBF7A6FEEEE70428ECD10E4BB4
:10F6C00013211888FFF778FC082302009A43E3D03F
:10F6D000F0E7094B1A88094B9A42DDD101F0A8FAEC
:10F6E000F2E7FBF78FFEE1E7FBF78CFEDAE7064B6C
:10F6F000236000231370CFE75C200020FFFF000091
:10F70000582000207C270020B0200020F0B55F4664
:10F7100056464D464446F0B4EA4B9FB0EA4A0521AE
:10F720000020FCF74DFA002801D0FBF76BFEE74AFA
:10F730000121E748FCF7DCFA002801D0FBF762FE64
:10F74000E44AE5490320FFF7E3FA002801D0FBF77C
:10F7500059FE0CAC21000020FFF7EAFB002801D085
:10F76000FBF750FE04AD0422DC492800267808F09F
:10F77000F6FADB4B4822DB49280008F0B5F80028F0
:10F7800001D0FBF73FFE22000121002008F028F9FC
:10F79000002801D0FBF736FE200008F039F90028D8
:10F7A00001D0FBF72FFED04808F0EEF8002801D07A
:10F7B000FBF728FECD4808F0F1F8002801D0FBF750
:10F7C00021FECB4A0A210820FBF73AFE002801D08F
:10F7D000FBF718FE05F0BAF8002801D0FBF712FE7F
:10F7E000022E00D127E2052200212000FBF710FDA8
:10F7F00001238122217820001943114030220A433D
:10F800007F210A4022700722022162700932A27011
:10F81000E2781A430A43E270227913430B432371BF
:10F8200005F0F6F8002801D0FBF7ECFDB14805F033
:10F83000D5F8002801D0FBF7E5FD0F2101222B7838
:10F84000AD4E8B43134310220B40134330002B70FB
:10F8500008F08EFA310082B22800FFF7B3FB0028CF
:10F8600001D0FBF7CFFDA548FFF7A8FB002801D08A
:10F87000FBF7C8FD082200212000FBF7C9FC062386
:10F8800018222380A380200025336280E380FFF7C5
:10F8900097FB002801D0FBF7B5FD3C22002120009A
:10F8A000FBF7B6FC022306222370013BA3702382E0
:10F8B000934BE27000211A3228006361FBF7A8FC29
:10F8C0000023AB70AB60EB6028332B610A3B6B61AC
:10F8D000C8231B01AB61B4230126EB61894B2E7059
:10F8E0006E70EE702E712A0000930021864B20006E
:10F8F00000F0C2FF002801D0FBF784FD02232B702B
:10F90000824B40226B80824B0021AB800123200080
:10F91000EB80FBF77DFC7F49200001F0F1FB3C21EF
:10F920000F200122635CA56383431343202203401D
:10F930001343635400223D232000E25406F0C4FC2C
:10F94000002801D0FBF75EFD142200212000FBF708
:10F950005FFC00230121012220200C93A36064336B
:10F960002373637B21710E318B4313430B4003439D
:10F970006373A37B8B4313430B400343A3730023A5
:10F98000E373237C8B431A43114001432174624883
:10F99000210006F003FB002801D0FBF733FD02AF86
:10F9A000082200213800FBF733FC08220021280040
:10F9B000FBF72EFC08233B8000239A46BB700123F3
:10F9C00098460F2641463B790122B3430B43202141
:10F9D0008946494633400B4341463B717B79FA7077
:10F9E000B3430B43494633400B4341467B71BB79DC
:10F9F0002A80B3430B43494633400B43BB71012379
:10FA00009B465346AB7002234246EB706B79200055
:10FA1000B3431343424633400B436B71AB79B3435B
:10FA2000134333400B4348220021AB71FBF7F0FB3B
:10FA30003A4B52460C933A4B414663605B46237205
:10FA4000534663725B46A372237453462376534630
:10FA5000E3614C33A384334BE76023620223FF331B
:10FA60002386CF3BE25403220133E2545246033350
:10FA7000E2542C225346A363A35C6561B3430B435A
:10FA8000494633400B43A35400222D234146E25400
:10FA90003432A35CB3430B43494633400B43A35476
:10FAA000002235234146E2544332A35CB3430B4367
:10FAB000494633400B434146A3540132A35CB34350
:10FAC0000B4331E081BE0100DC240020E1EF0100A6
:10FAD000D07F020061F60100CD0C0000CC7F020057
:10FAE000417A02002824002035F2010021F00100B3
:10FAF0005425002099F10100D47F0200C1030000C9
:10FB0000AC20002025F2010031F0010015190000A1
:10FB1000EEEEFFFFE47F020070240020A9F5010053
:10FB20002DF2010060200020494633400B43A354CE
:10FB3000002245234146E2544632A35CB3430B43C3
:10FB4000494633400B434146A3540132A35C3E482F
:10FB5000B3430B43494633400B434146A3540B3A4E
:10FB6000A35CB3430B43494633400B434146A35484
:10FB70000132A35CB3430B43494633400B43A354C8
:10FB800000223E234146E2543F32A35CB3430B4381
:10FB90001E404B4621001E43A65407F033FA0028AE
:10FBA00001D0FBF72FFC5123284929480B60133360
:10FBB0004B60633B8B600B73FEF708F81C2200213F
:10FBC0002000FBF725FBA02292026260F0221203C4
:10FBD000A26003220023227300220C93E38163615D
:10FBE0001C4B20002274A36101F0E6F8002801D02C
:10FBF000FBF708FC00223C21174B18485A540131EE
:10FC00005A5401315A5480215A601A61DA619A6259
:10FC10005A634902FCF786F8002801D0FBF7F2FB93
:10FC2000FFF770FAFBF7A0FCFFF7D4F90028F9D032
:10FC3000FBF7E8FBF6E704F06DFF002800D1D2E502
:10FC4000FBF7E0FBCFE5C04604260020CC240020D3
:10FC5000BC240020D9EF0100802700208C24002044
:10FC600071DF704772DF704779DF70477DDF704763
:10FC700065DF7047F0B55F4656464D464446F0B4E2
:10FC800085B09A460EAB80CB06001B8800919B4640
:10FC90003B8801930388002B63D00023994602AB75
:10FCA000DD1C3B0000241700984603E03388013434
:10FCB000A3422CDD7368A1009C460422614403A882
:10FCC00008F04DF80022290003A8FFF7D1FF002813
:10FCD00029D12B78BB42E9D14B46002B2AD0434691
:10FCE0001A88D3195B453EDC5244290003A8FFF76C
:10FCF000BFFF002817D143462A781B880134D31848
:10FD000042461380012399463388A342D2DC4B46F6
:10FD10004746002B25D03B88019A013B9B1A9BB29A
:10FD20000C20FF2B1AD905B03CBC90469946A24640
:10FD3000AB46F0BD43461B88DA1902325A4512DC45
:10FD40004246013369469BB2138052460978D1542A
:10FD500043461A88013292B21A80C5E71100524612
:10FD600053540020DFE70C20DDE7C046F0B54446E1
:10FD700056464D465F46F0B413881400984600235B
:10FD800013802D33C25C87B005000E000023002ACB
:10FD900000D0EFE0AA78002A00D018E1E978002925
:10FDA00000D0DCE06A68002A15D0D91C414500D992
:10FDB000D8E002211278F1542388083101339BB234
:10FDC0002380F154238852B201339BB22380F25432
:10FDD0002388013323802B89002B00D02AE12B8A32
:10FDE000002B00D041E12B8B002B00D058E12B6A77
:10FDF000002B48D022880C20911D414500D9B2E04B
:10FE0000198805388B46052900D8ACE0B54F5F440A
:10FE1000BFB2B946B44FBC46B94500D8A3E05F882D
:10FE2000BA46052F00D89EE0AE4F6946B946D14488
:10FE30004F46CF81CF89674500D894E0AB4FBB4593
:10FE400004D0BA4502D0D34500D98CE00521B15485
:10FE500022880D31013292B22280B15422880132BF
:10FE600092B222801988B2181170090A5170228842
:10FE7000023292B222805988B3181970090A597057
:10FE80002388023323806F6A002F2CD0BA88218800
:10FE9000131D5B180C20434565D8931CFE2B62D8BC
:10FEA00003327254FF22238801339BB22380F25421
:10FEB000238801339BB223803A88F3181A70120A00
:10FEC0005A70238802339BB22380BA88002A0AD052
:10FED000B9680538002946D0F01807F040FF22889D
:10FEE000BB88D31823802C23EB5C002B00D0FFE0D1
:10FEF0002B780020002B36D02A880720012A32D008
:10FF00002288901C40452DD8012B04D16B780233F8
:10FF10009B18984526D34746023FBA1A97B202ABC0
:10FF2000301804A91F81FFF7A1FE00281BD12B78F0
:10FF3000022B00D125E1012B00D1CCE03B000821B0
:10FF4000FE2B0FD822885D1CB5542288013292B254
:10FF50002280B154228801329B18238003E0DA1CEE
:10FF6000424555D90C2007B03CBC90469946A24664
:10FF7000AB46F0BD43460C20082BF4D904A8FFF78C
:10FF80006FFE0028EFD1082223880921F25423882C
:10FF9000133201339BB22380F25402AB9C4620887B
:10FFA000153A013080B220806144301807F0D7FE46
:10FFB000238802AA0633127A9BB22380002A00D03B
:10FFC0000122F254238801339BB22380E2E60433FA
:10FFD0000C204345C7D804A8FFF746FE0028C2D12D
:10FFE00003222388F2542388163201339BB22380E4
:10FFF000F254238802AA01339BB212892380F3189A
:020000022000DC
:100000001A70120A5A70238802339BB22380C5E605
:100010000222F2542388013A01339BB22380F25426
:10002000238801339BB22380F154238801339BB290
:100030002380B7E62F00434608370193009433002E
:10004000022202213800FFF715FE002800D08AE7BF
:100050004346009401931022330006213800FFF735
:1000600009FE002800D07EE7B9E62F00434610378E
:10007000019300943300022203213800FFF7FAFDB8
:10008000002800D06FE7434600940193102233000C
:1000900007213800FFF7EEFD002800D063E7A2E655
:1000A0002F00434618370193009433000222142195
:1000B0003800FFF7DFFD002800D054E743460094E6
:1000C00001931022330015213800FFF7D3FD0028DB
:1000D00000D048E78BE66B789F4200D32FE73B00C8
:1000E0002DE7C0467FF3FFFF7DF30000FFFF000018
:1000F000AF6A002F43D0BB880233FE2B00D931E713
:100100000022914616329246163293462088524675
:1001100001333354238801339BB22380F254238864
:1001200001339BB223803A88F3181A70120A5A706E
:100130002088023080B22080BA88002A0AD0B968AC
:1001400000291CD0301807F00AFE2088BB88C01890
:1001500080B220804B460133DBB299465B46EB5CB4
:100160004B4500D8C4E64B465F00AB6A4F449C4603
:10017000BF006744BB880233FE2BC8D9F2E60720D4
:10018000F1E602AB1B8909219F4200D3D8E63B0070
:10019000D5E6C046F0B54E46574645461F23E0B467
:1001A00096B002AA04000E00D38100282ED0C07899
:1001B000430724D5002302AA93812D33E35C002B4F
:1001C00000D074E1A3780EAF002B00D0ACE1002387
:1001D0000021032206AD02276F54591C02339BB243
:1001E00089B2013F6F54E85493B202AA93816268C6
:1001F000002A39D0D91C1F2929D90C2000E007205A
:1002000016B01CBC90469946A246F0BD002502AB34
:100210009881002E16D0F378002BF0D102AA9446D4
:100220000E2363441A000EA93000FFF79FFD00283B
:10023000E6D102AB9B7B0EAA02A9097B2800FFF73F
:1002400011FDDDE702ABDE8100220023F4E7002090
:10025000105602220A27EA545A1C02339BB292B269
:10026000AF54E85402AB99812389002B00D0C4E03D
:10027000238A002B00D0DEE0238B002B00D0F8E097
:10028000226A002A3ED002AB9B890C20991D1F29AF
:10029000B6D8108882460528B1D9B14F5744BFB2AD
:1002A000B846B04FBC46B845A9D95788B946052FBE
:1002B000A5D9AB4F6846B846C8444746C781C789E9
:1002C00067459CD9A84FBA4504D0B94502D0CA4564
:1002D00000D994E705201227E854581C80B22F5407
:1002E000981C80B202AFB8811788281807703F0A9F
:1002F0004770043352889BB2EB181A70120A5A7076
:1003000002AB9981676A002F34D0BB88991C02AB7D
:100310009B899A1C50188046914642460C201F2A01
:1003200000D96DE7FE2900D96AE70131E954591C6B
:1003300089B2F33068544A466946CA81CA8902A91B
:100340008A813988AA180433117098B2090A02AB5D
:1003500051709881BA88002A0CD0B968002900D160
:100360004DE7281807F0FBFC02AB9A89BB88D3182D
:1003700002AA93812C23E15C002900D0F6E02378C7
:10038000002B00D145E722880720012A00D137E75A
:1003900002AA9289901C1F2800D92EE7012B05D1B3
:1003A00063789B1802331F2B00D926E71D230EAF5D
:1003B0009A1A93B22818390098463B80FFF756FCEA
:1003C000002800D01CE72378022B00D119E1012B73
:1003D00000D11CE1434608203B804346FE2B00D958
:1003E0000BE702AA9289591CA954511C02329B188E
:1003F00089B202AA685493810BE71F23270098460D
:100400000837019305AB009302222B00022138002C
:10041000FFF730FC002800D0F2E64346019305AB1D
:10042000009310222B0006213800FFF723FC002840
:1004300000D0E5E61CE71F232700984610370193FC
:1004400005AB009302222B0003213800FFF712FCBA
:10045000002800D0D4E64346019305AB0093102258
:100460002B0007213800FFF705FC002800D0C7E665
:1004700002E71F23270098461837019305AB009326
:1004800002222B0014213800FFF7F4FB002800D0D3
:10049000B6E64346019305AB009310222B001521CD
:1004A0003800FFF7E7FB002800D0A9E6E8E60EAF2A
:1004B0003800FFF7D5FB002800D0A1E6082202ABE8
:1004C0009B8906ADEA545A1C023398B21B2102AB39
:1004D0009C4692B2A954163198810622614428188C
:1004E00007F03DFC02AB9B8902A99A1D92B28A815A
:1004F0003978002900D001210733A9549BB202AA00
:100500009381A278002A0AD1E078002800D16EE613
:10051000DA1C19001F2A00D85DE60C2070E60433AF
:100520000C201F2B00D96BE63800FFF79DFB00283D
:1005300000D065E60322192102AB9B8906ADEA547F
:100540005A1C92B2A9549A1C398892B2AA181170F6
:100550000433090A51709BB202AA9381D4E7C046C2
:100560007FF3FFFF7DF30000FFFF0000A76A002F6D
:1005700000D144E6BB880233FE2B00D93DE602AA37
:1005800090890022904616329146163292464A468B
:1005900001332B54431C9BB2EA54831C9BB202AA26
:1005A00093813A88EB181A700430120A5A7080B29C
:1005B00002AB9881BA88002A0FD0B968002900D10F
:1005C0001DE6281807F0CBFB02AB9889BB88C01842
:1005D00080B202AB98815346E15C43460133DBB203
:1005E00098468B4200D3CAE643465F00A36A47445D
:1005F0009C46BF006744BB880233FE2BC7D90C2042
:10060000FEE53B880930984500D3E7E6E2E66378EB
:10061000984500D2DEE63B800820DFE673DF7047B6
:1006200074DF7047F0B5894C87B0070007220021BE
:100630002000FAF7EDFD864D6B78002B39D1AB78B1
:10064000844E002B49D16378002B72D1A378002B04
:100650006FD1E378002B6CD12379002B69D16379BA
:10066000002B66D1A3795A1E9341DBB2022F58D0DA
:1006700037D9032F3CD0042F5DD12A790423002AD7
:100680004DD03370744B1B68002B3AD10022734B52
:100690001A70182200216846FAF7BAFD00236A464C
:1006A000137013723378042B6DD86D4A9B00D358A6
:1006B0009F46684E3378012B04D0AA78002AC2D016
:1006C000022BC0D1644B1B68002B00D1B9E0012183
:1006D000644A082011709847B5E73378012BEFD1B1
:1006E000F0E7012F27D16A78002A1AD0002B15D104
:1006F000EA780323002AC0D03370574B1B68002BC5
:10070000C4D02A78002AC1D0574A1278002ABDD115
:100710000121524A072011709847BAE7012232702E
:10072000B4E7AA78002AE3D00222002BE0D032708E
:10073000ACE701239AE700223270A7E76B462A8ACA
:100740001A82AA8A5A822B78002B00D171E0464B7C
:100750001B78002B00D06CE0444B1A79002A02D1A0
:100760001A7B002A65D003936A460223404813721D
:1007700000210233C370FFF70DFD002864D105226C
:100780003C4B1A703378002B12D1334B1B68002B73
:1007900017D1002019E00222364B01941A70012370
:1007A0006A4613706B46AA895A826A46AB681382FE
:1007B0006846FFF733FF002807D1274B1B68002B43
:1007C000E7D02C4A10789847002007B0F0BD0123ED
:1007D000284A019413706A461370002353821382CF
:1007E000E6E70022234B1A70E7E76B462A8B1A8252
:1007F000AA8B5A822B78002B1FD01B4B1B78002B07
:100800001BD11A4B1A79002A02D11A7B002A14D064
:1008100003936A4602231648137200210233C37001
:10082000FFF7B8FC00280FD10622124B1A7033785C
:10083000A9E703220F4B1A70BAE704220D4B1A7076
:10084000B6E7084A1370FEE633789CE734280020A8
:100850003C2800205C2900200828002020290020B6
:10086000F87F02005D2900202F280020B8200020FA
:10087000C02700206C290020F8B504000E000E20CF
:10088000002C00D1ADE0002A00D1AAE055490D3876
:10089000087000205449087054480100A1CAA1C141
:1008A000A1CAA1C121CA21C1514A00211360514BE3
:1008B000069A51481A600122504B52421A8008325F
:1008C000FAF7A6FC4E4D00213C222800FAF7A0FCC6
:1008D000237822002B70A3781032AB70E378EB7092
:1008E00063786B702B00103303CA03C32B00103ADC
:1008F000083303CA03C32B000832183303CA03C3E7
:10090000636A002B11D03F4B3F4F6B62616A9F605F
:100910000A881A8088889880002806D000238A6870
:10092000D25CFA5401339842F9D1A36A002B14D057
:10093000364B374FAB62A06A9F60818899800288EE
:100940001A800023002905D08268D25CFA54013352
:100950008B42F9D12C23E25CEA54236A002B06D0A7
:100960002C4B2B62226A5188598012881A80636846
:10097000002B00D06B602849284B0A68D81D1360F3
:100980000A68506018000E30906018001530D06072
:1009900018001C30106118002330506118003133EA
:1009A000D3611F4B2A30906118008A6810301360A1
:1009B0008A68506018008A68203090608A68190040
:1009C0003031D1601900403111611900503151614D
:1009D0001900703360319161D36131002800FFF755
:1009E000D9FBF8BD5E2900205C2900203C280020AE
:1009F0000828002030280020342800202229002048
:100A0000C0270020FC27002010280020602900209B
:100A1000802800207C280020B820002024290020E5
:100A2000A028002010B50D4B04001B7882B00820D0
:100A3000002B01D102B010BD094B01A81C70FCF7BE
:100A400073FD019B002B04D00122064B00201A707D
:100A5000F0E72000FFF7E6FDECE7C0465E29002046
:100A60005C2900200C28002030B5038883B0112BAE
:100A70001AD01B2B0AD0102B01D003B030BD837DC0
:100A8000012BFAD18288224B1A80F6E7037A002BD9
:100A9000F3D1204B08201B78002B1FD11E4B1B6865
:100AA000002BEAD09847E8E700211C4A83881170A0
:100AB000174A12889A42E0D1164B08201B78002B67
:100AC000ECD00122164B01A81A70FCF72DFD019BFA
